:100000000C945D000C9485000C9485000C94850084
:100010000C9485000C9485000C9485000C9485004C
:100020000C9485000C9485000C9485000C9485003C
:100030000C9485000C9485000C9485000C9485002C
:100040000C9430020C9485000C94A0020C947A025B
:100050000C9485000C9485000C9485000C9485000C
:100060000C9485000C94850000000008000201003B
:100070000003040700000000000000000000000072
:10008000250028002B0000000000240027002A0083
:10009000040404040404040402020202020203032E
:1000A0000303030301020408102040800102040836
:1000B0001020010204081020DA0311241FBECFEF24
:1000C000D8E0DEBFCDBF11E0A0E0B1E0ECEEF9E09A
:1000D00002C005900D92A631B107D9F721E0A6E143
:1000E000B1E001C01D92A23CB207E1F710E0CDE5FE
:1000F000D0E004C02197FE010E94EE04CC35D10768
:10010000C9F70E94E5020C94F4040C94000090E0FE
:10011000FC01EC55FF4F249180579F4FFC018491C7
:10012000882399F090E0880F991FFC01EA57FF4F50
:10013000A591B491FC01E458FF4F859194918FB73C
:10014000F894EC91E22BEC938FBF089590E0FC01C2
:10015000E859FF4F2491FC01EC55FF4F3491FC010D
:10016000E057FF4FE491EE23C9F0222339F023300A
:1001700001F1A8F4213019F1223029F1F0E0EE0F5D
:10018000FF1FE458FF4FA591B4918FB7F894EC91FD
:10019000611126C030953E233C938FBF08952730D0
:1001A000A9F02830C9F0243049F7809180008F7D74
:1001B00003C0809180008F7780938000DFCF84B56B
:1001C0008F7784BDDBCF84B58F7DFBCF8091B0006E
:1001D0008F778093B000D2CF8091B0008F7DF9CF20
:1001E0003E2BDACF3FB7F8948091BA019091BB01D2
:1001F000A091BC01B091BD0126B5A89B05C02F3FC1
:1002000019F00196A11DB11D3FBFBA2FA92F982F3C
:100210008827BC01CD01620F711D811D911D42E037
:10022000660F771F881F991F4A95D1F70895AF92DF
:10023000BF92CF92DF92EF92FF920F931F93CF93D3
:10024000DF936C017B018B01040F151FEB015E0135
:10025000AE18BF08C017D10759F06991D601ED91CA
:10026000FC910190F081E02DC6010995892B79F769
:10027000C501DF91CF911F910F91FF90EF90DF901B
:10028000CF90BF90AF900895FC01538D448D252FE2
:1002900030E0842F90E0821B930B541710F0CF9620
:1002A000089501970895FC01918D828D981761F052
:1002B000A28DAE0FBF2FB11D5D968C91928D9F5F69
:1002C0009F73928F90E008958FEF9FEF0895FC0148
:1002D000918D828D981731F0828DE80FF11D858DFB
:1002E00090E008958FEF9FEF0895FC01918D228D8E
:1002F000892F90E0805C9F4F821B91098F73992713
:10030000089588E191E00E94750121E0892B09F4AC
:1003100020E0822F089580E090E0892B29F00E9450
:10032000810181110C9400000895FC01A48DA80F97
:10033000B92FB11DA35ABF4F2C91848D90E0019627
:100340008F739927848FA689B7892C93A089B18947
:100350008C91837080648C93938D848D981306C0E8
:100360000288F389E02D80818F7D80830895EF924C
:10037000FF920F931F93CF93DF93EC0181E0888F5F
:100380009B8D8C8D98131AC0E889F989808185FF2F
:1003900015C09FB7F894EE89FF896083E889F989D1
:1003A00080818370806480839FBF81E090E0DF91D3
:1003B000CF911F910F91FF90EF900895F62E0B8D26
:1003C00010E00F5F1F4F0F731127E02E8C8D8E11E1
:1003D0000CC00FB607FCFACFE889F989808185FF48
:1003E000F5CFCE010E949501F1CFEB8DEC0FFD2FE3
:1003F000F11DE35AFF4FF0829FB7F8940B8FEA8903
:10040000FB8980818062CFCFCF93DF93EC01888D11
:100410008823B9F0AA89BB89E889F9898C9185FD7F
:1004200003C0808186FD0DC00FB607FCF7CF8C910D
:1004300085FFF2CF808185FFEDCFCE010E9495012F
:10044000E9CFDF91CF91089560E087E00E94A60098
:1004500060E085E00E94A60060E082E00C94A600C7
:100460001F920F920FB60F9211242F933F938F93E9
:100470009F93AF93BF938091B6019091B701A091E4
:10048000B801B091B9013091B50123E0230F2D37A8
:1004900058F50196A11DB11D2093B5018093B601B9
:1004A0009093B701A093B801B093B9018091BA01BC
:1004B0009091BB01A091BC01B091BD010196A11D1D
:1004C000B11D8093BA019093BB01A093BC01B0937E
:1004D000BD01BF91AF919F918F913F912F910F904F
:1004E0000FBE0F901F90189526E8230F0296A11DAE
:1004F000B11DD2CF1F920F920FB60F9211242F93DE
:100500003F934F935F936F937F938F939F93AF939B
:10051000BF93EF93FF9388E191E00E949501FF91D3
:10052000EF91BF91AF919F918F917F916F915F916B
:100530004F913F912F910F900FBE0F901F901895E4
:100540001F920F920FB60F9211242F938F939F93A8
:10055000EF93FF93E0912801F09129018081E091D0
:100560002E01F0912F0182FD1BC0908180913101FD
:100570008F5F8F7320913201821741F0E09131013A
:10058000F0E0E85EFE4F958F80933101FF91EF918F
:100590009F918F912F910F900FBE0F901F901895E4
:1005A0008081F4CFFC010FB6F8946091BE01709188
:1005B000BF018091C0019091C1010FBE309721F021
:1005C00060837183828393830895789484B5826075
:1005D00084BD84B5816084BD85B5826085BD85B5E7
:1005E000816085BD80916E00816080936E00109265
:1005F00081008091810082608093810080918100E0
:100600008160809381008091800081608093800070
:100610008091B10084608093B1008091B0008160CE
:100620008093B00080917A00846080937A008091FA
:100630007A00826080937A0080917A008160809352
:100640007A0080917A00806880937A001092C100CD
:1006500090E080E00E94D202CB010E945804E09119
:100660002801F091290182E08083E0912401F0913A
:1006700025011082E0912601F09127018FEC808303
:1006800010923001E0912C01F0912D0186E08083E1
:10069000E0912A01F0912B01808180618083E091BB
:1006A0002A01F0912B01808188608083E0912A01EA
:1006B000F0912B01808180688083E0912A01F09184
:1006C0002B0180818F7D808387E00E94870085E0F9
:1006D0000E94870082E00E94870084E6782EC3E0B3
:1006E000D0E000E010E088E191E00E94750118166A
:1006F00019064CF488E191E00E945301C097909351
:100700001701809316018091160190911701789E30
:100710006001799ED00C11240D2C000CEE08FF080E
:100720000E94F2004B015C01C114D104E104F10408
:10073000B9F00E94F200681979098A099B09683E9C
:1007400073408105910580F321E0C21AD108E108C8
:10075000F10888EE880E83E0981EA11CB11CE4CF3E
:100760000E945304BE010E94C60401968230910586
:10077000B9F083309105C9F0019731F40E94240249
:1007800061E082E00E94A6000115110509F4ABCFDB
:100790000E948101882309F4A6CF0E940000A3CF04
:1007A0000E94240261E085E0EDCF0E94240261E016
:1007B00087E0E8CFE8E1F1E01382128288EE93E06F
:1007C000A0E0B0E084839583A683B78388E091E0BE
:1007D0009183808385EC90E09587848784EC90E01A
:1007E0009787868780EC90E0918B808B81EC90E0FE
:1007F000938B828B82EC90E0958B848B86EC90E0DF
:10080000978B868B118E128E138E148E08958F9275
:100810009F92AF92BF92CF92DF92EF92FF92CF93CF
:10082000DF93EC01688179818A819B816115710573
:100830008105910521F464E279ED8BE597E02DE1E6
:1008400033EF41E050E00E94630449015A019B01EB
:10085000AC01A7EAB1E40E9482046B017C01ACEE1A
:10086000B4EFA50194010E949004DC01CB018C0D32
:100870009D1DAE1DBF1DB7FF03C00197A109B04864
:1008800088839983AA83BB839F77DF91CF91FF9061
:10089000EF90DF90CF90BF90AF909F908F90089592
:1008A0000E940704089580E091E00E9407040895E3
:1008B000B0E0A0E08093000190930101A0930201B9
:1008C000B09303010895052E97FB1EF400940E9437
:1008D0007A0457FD07D00E94950407FC03D04EF41C
:1008E0000C947A0450954095309521953F4F4F4F89
:1008F0005F4F089590958095709561957F4F8F4FCC
:100900009F4F08950E94B704A59F900DB49F900D2E
:10091000A49F800D911D11240895B7FF0C948204AB
:100920000E948204821B930B0895A1E21A2EAA1B37
:10093000BB1BFD010DC0AA1FBB1FEE1FFF1FA2178F
:10094000B307E407F50720F0A21BB30BE40BF50B8C
:10095000661F771F881F991F1A9469F76095709515
:10096000809590959B01AC01BD01CF010895A29F98
:10097000B001B39FC001A39F700D811D1124911D73
:10098000B29F700D811D1124911D089597FB072EB4
:1009900016F4009407D077FD09D00E94DA0407FC12
:1009A00005D03EF4909581959F4F0895709561957F
:1009B0007F4F0895AA1BBB1B51E107C0AA1FBB1F95
:1009C000A617B70710F0A61BB70B881F991F5A95DB
:1009D000A9F780959095BC01CD010895EE0FFF1FFA
:0C09E0000590F491E02D0994F894FFCFED
:1009EC000100000000000000B701170144010402DF
:0609FC00750153016701C3
:00000001FF
